{
  "contractName": "ProductTracker",
  "abi": [
    {
      "inputs": [],
      "payable": false,
      "stateMutability": "nonpayable",
      "type": "constructor"
    },
    {
      "anonymous": false,
      "inputs": [
        {
          "indexed": false,
          "internalType": "string",
          "name": "name",
          "type": "string"
        },
        {
          "indexed": false,
          "internalType": "uint256",
          "name": "dateOfPurchase",
          "type": "uint256"
        },
        {
          "indexed": false,
          "internalType": "uint256",
          "name": "warrantyPeriod",
          "type": "uint256"
        },
        {
          "indexed": false,
          "internalType": "uint256",
          "name": "price",
          "type": "uint256"
        },
        {
          "indexed": false,
          "internalType": "address payable",
          "name": "ownerAddress",
          "type": "address"
        }
      ],
      "name": "ProductAdded",
      "type": "event"
    },
    {
      "anonymous": false,
      "inputs": [
        {
          "indexed": false,
          "internalType": "string",
          "name": "name",
          "type": "string"
        },
        {
          "indexed": false,
          "internalType": "uint256",
          "name": "dateOfPurchase",
          "type": "uint256"
        },
        {
          "indexed": false,
          "internalType": "uint256",
          "name": "warrantyPeriod",
          "type": "uint256"
        },
        {
          "indexed": false,
          "internalType": "uint256",
          "name": "price",
          "type": "uint256"
        },
        {
          "indexed": false,
          "internalType": "address payable",
          "name": "ownerAddress",
          "type": "address"
        }
      ],
      "name": "ProductPurchased",
      "type": "event"
    },
    {
      "constant": true,
      "inputs": [
        {
          "internalType": "uint256",
          "name": "",
          "type": "uint256"
        }
      ],
      "name": "product",
      "outputs": [
        {
          "internalType": "string",
          "name": "name",
          "type": "string"
        },
        {
          "internalType": "uint256",
          "name": "dateOfPurchase",
          "type": "uint256"
        },
        {
          "internalType": "uint256",
          "name": "warrantyPeriod",
          "type": "uint256"
        },
        {
          "internalType": "uint256",
          "name": "price",
          "type": "uint256"
        },
        {
          "internalType": "address payable",
          "name": "ownerAddress",
          "type": "address"
        }
      ],
      "payable": false,
      "stateMutability": "view",
      "type": "function"
    },
    {
      "constant": true,
      "inputs": [],
      "name": "productCount",
      "outputs": [
        {
          "internalType": "uint256",
          "name": "",
          "type": "uint256"
        }
      ],
      "payable": false,
      "stateMutability": "view",
      "type": "function"
    },
    {
      "constant": true,
      "inputs": [],
      "name": "product_manufacturer",
      "outputs": [
        {
          "internalType": "address payable",
          "name": "",
          "type": "address"
        }
      ],
      "payable": false,
      "stateMutability": "view",
      "type": "function"
    },
    {
      "constant": false,
      "inputs": [
        {
          "internalType": "string",
          "name": "_name",
          "type": "string"
        },
        {
          "internalType": "uint256",
          "name": "_dateOfPurchase",
          "type": "uint256"
        },
        {
          "internalType": "uint256",
          "name": "_wPeriod",
          "type": "uint256"
        },
        {
          "internalType": "uint256",
          "name": "_price",
          "type": "uint256"
        }
      ],
      "name": "addProduct",
      "outputs": [],
      "payable": false,
      "stateMutability": "nonpayable",
      "type": "function"
    },
    {
      "constant": false,
      "inputs": [
        {
          "internalType": "uint256",
          "name": "_pId",
          "type": "uint256"
        }
      ],
      "name": "buyProduct",
      "outputs": [],
      "payable": true,
      "stateMutability": "payable",
      "type": "function"
    }
  ],
  "bytecode": "0x6080604052600060015534801561001557600080fd5b50336000806101000a81548173ffffffffffffffffffffffffffffffffffffffff021916908373ffffffffffffffffffffffffffffffffffffffff160217905550610d35806100656000396000f3fe60806040526004361061004a5760003560e01c8063094455c41461004f578063780bd3f1146101355780638642269e14610231578063e0f6ef871461025f578063ece596b41461028a575b600080fd5b34801561005b57600080fd5b506101336004803603608081101561007257600080fd5b810190808035906020019064010000000081111561008f57600080fd5b8201836020820111156100a157600080fd5b803590602001918460018302840111640100000000831117156100c357600080fd5b91908080601f016020809104026020016040519081016040528093929190818152602001838380828437600081840152601f19601f8201169050808301925050505050505091929192908035906020019092919080359060200190929190803590602001909291905050506102e1565b005b34801561014157600080fd5b5061016e6004803603602081101561015857600080fd5b810190808035906020019092919050505061068c565b60405180806020018681526020018581526020018481526020018373ffffffffffffffffffffffffffffffffffffffff1673ffffffffffffffffffffffffffffffffffffffff168152602001828103825287818151815260200191508051906020019080838360005b838110156101f25780820151818401526020810190506101d7565b50505050905090810190601f16801561021f5780820380516001836020036101000a031916815260200191505b50965050505050505060405180910390f35b61025d6004803603602081101561024757600080fd5b810190808035906020019092919050505061077a565b005b34801561026b57600080fd5b50610274610ba8565b6040518082815260200191505060405180910390f35b34801561029657600080fd5b5061029f610bae565b604051808273ffffffffffffffffffffffffffffffffffffffff1673ffffffffffffffffffffffffffffffffffffffff16815260200191505060405180910390f35b6000809054906101000a900473ffffffffffffffffffffffffffffffffffffffff1673ffffffffffffffffffffffffffffffffffffffff163373ffffffffffffffffffffffffffffffffffffffff1614610386576040517f08c379a0000000000000000000000000000000000000000000000000000000008152600401808060200182810382526022815260200180610cdf6022913960400191505060405180910390fd5b60008451116103fd576040517f08c379a00000000000000000000000000000000000000000000000000000000081526004018080602001828103825260148152602001807f6e616d652063616e6e6f7420626520656d70747900000000000000000000000081525060200191505060405180910390fd5b60008111610473576040517f08c379a00000000000000000000000000000000000000000000000000000000081526004018080602001828103825260118152602001807f70726963652063616e6e6f74206265203000000000000000000000000000000081525060200191505060405180910390fd5b6001600081548092919060010191905055506040518060a001604052808581526020018481526020018381526020018281526020016000809054906101000a900473ffffffffffffffffffffffffffffffffffffffff1673ffffffffffffffffffffffffffffffffffffffff168152506002600060015481526020019081526020016000206000820151816000019080519060200190610514929190610bd3565b5060208201518160010155604082015181600201556060820151816003015560808201518160040160006101000a81548173ffffffffffffffffffffffffffffffffffffffff021916908373ffffffffffffffffffffffffffffffffffffffff1602179055509050507fea2a769bc35954c6a860b07627f1cbf47c03c5dc15829b83d3bb92ca1ee9fafe848484846000809054906101000a900473ffffffffffffffffffffffffffffffffffffffff1660405180806020018681526020018581526020018481526020018373ffffffffffffffffffffffffffffffffffffffff1673ffffffffffffffffffffffffffffffffffffffff168152602001828103825287818151815260200191508051906020019080838360005b8381101561064857808201518184015260208101905061062d565b50505050905090810190601f1680156106755780820380516001836020036101000a031916815260200191505b50965050505050505060405180910390a150505050565b6002602052806000526040600020600091509050806000018054600181600116156101000203166002900480601f0160208091040260200160405190810160405280929190818152602001828054600181600116156101000203166002900480156107385780601f1061070d57610100808354040283529160200191610738565b820191906000526020600020905b81548152906001019060200180831161071b57829003601f168201915b5050505050908060010154908060020154908060030154908060040160009054906101000a900473ffffffffffffffffffffffffffffffffffffffff16905085565b6000809054906101000a900473ffffffffffffffffffffffffffffffffffffffff1673ffffffffffffffffffffffffffffffffffffffff163373ffffffffffffffffffffffffffffffffffffffff161415610820576040517f08c379a0000000000000000000000000000000000000000000000000000000008152600401808060200182810382526021815260200180610cbe6021913960400191505060405180910390fd5b610828610c53565b600260008381526020019081526020016000206040518060a0016040529081600082018054600181600116156101000203166002900480601f0160208091040260200160405190810160405280929190818152602001828054600181600116156101000203166002900480156108df5780601f106108b4576101008083540402835291602001916108df565b820191906000526020600020905b8154815290600101906020018083116108c257829003601f168201915b505050505081526020016001820154815260200160028201548152602001600382015481526020016004820160009054906101000a900473ffffffffffffffffffffffffffffffffffffffff1673ffffffffffffffffffffffffffffffffffffffff1673ffffffffffffffffffffffffffffffffffffffff1681525050905060008160800151905060008311801561097957506001548311155b61098257600080fd5b816060015134101561099357600080fd5b33826080019073ffffffffffffffffffffffffffffffffffffffff16908173ffffffffffffffffffffffffffffffffffffffff1681525050816002600085815260200190815260200160002060008201518160000190805190602001906109fb929190610bd3565b5060208201518160010155604082015181600201556060820151816003015560808201518160040160006101000a81548173ffffffffffffffffffffffffffffffffffffffff021916908373ffffffffffffffffffffffffffffffffffffffff1602179055509050508073ffffffffffffffffffffffffffffffffffffffff166108fc349081150290604051600060405180830381858888f19350505050158015610aaa573d6000803e3d6000fd5b507f77abb7761adac91181c12fbe55d0b7532e24eec8bcea51e75b5c641a8ad9ea1282600001518360200151846040015185606001513360405180806020018681526020018581526020018481526020018373ffffffffffffffffffffffffffffffffffffffff1673ffffffffffffffffffffffffffffffffffffffff168152602001828103825287818151815260200191508051906020019080838360005b83811015610b65578082015181840152602081019050610b4a565b50505050905090810190601f168015610b925780820380516001836020036101000a031916815260200191505b50965050505050505060405180910390a1505050565b60015481565b6000809054906101000a900473ffffffffffffffffffffffffffffffffffffffff1681565b828054600181600116156101000203166002900490600052602060002090601f016020900481019282601f10610c1457805160ff1916838001178555610c42565b82800160010185558215610c42579182015b82811115610c41578251825591602001919060010190610c26565b5b509050610c4f9190610c98565b5090565b6040518060a0016040528060608152602001600081526020016000815260200160008152602001600073ffffffffffffffffffffffffffffffffffffffff1681525090565b610cba91905b80821115610cb6576000816000905550600101610c9e565b5090565b9056fe4d616e7566616374757265722063616e7420627579206f776e2070726f647563744f6e6c79206d616e7566616374757265722063616e206164642070726f6475637473a265627a7a72315820834945569732e5f3d567c1bb241a1706095efa36ff53117f79e3e72fa5117b5364736f6c63430005100032",
  "source": "//SPDX-License-Identifier: MIT\npragma solidity >= 0.5.0 < 0.7.0;\n\ncontract ProductTracker {\n\n  address payable public product_manufacturer;\n  uint public productCount = 0;\n\n  struct productDetail {\n        string name;\n        uint dateOfPurchase;\n        uint warrantyPeriod;\n        uint price;\n        address payable ownerAddress;\n    }\n\n  mapping(uint => productDetail) public product;\n\n  event ProductAdded(\n        string name,\n        uint dateOfPurchase,\n        uint warrantyPeriod,\n        uint price,\n        address payable ownerAddress\n  );\n\n  event ProductPurchased(\n        string name,\n        uint dateOfPurchase,\n        uint warrantyPeriod,\n        uint price,\n        address payable ownerAddress\n  );\n\n  constructor () public {\n   product_manufacturer = msg.sender;\n    }\n\n   modifier only_manufacturer (){\n       require (msg.sender == product_manufacturer, \"Only manufacturer can add products\");\n       _;\n    }\n\n   modifier buy_conditions (){\n       require (msg.sender != product_manufacturer, \"Manufacturer cant buy own product\");\n       _;\n    }\n\n   function addProduct(string memory _name, uint _dateOfPurchase,uint _wPeriod, uint _price) public only_manufacturer{\n       //Require a valid name\n        require(bytes(_name).length > 0, 'name cannot be empty');\n       //Require a valid price\n        require(_price > 0,'price cannot be 0');\n       //Increment the Product Count\n        productCount++;\n       //Add the Product\n        product[productCount] = productDetail(_name, _dateOfPurchase, _wPeriod, _price, product_manufacturer);\n       //Emit an event when product is added\n        emit ProductAdded(_name, _dateOfPurchase, _wPeriod, _price, product_manufacturer);\n\n    }\n\n    function buyProduct(uint _pId) public payable buy_conditions{\n        //Fetch the product\n        productDetail memory _product = product[_pId];\n        //Fetch the owner\n        address payable _seller = _product.ownerAddress;\n        //Ensure that the product has a valid id\n        require(_pId > 0 && _pId <= productCount);\n        //Ensure that buyer sends enough ether\n        require(msg.value >= _product.price);\n        //Ensure that the product has not been purchased already ------------X\n        //Transfer the ownership\n        _product.ownerAddress = msg.sender;\n        //Update the product\n        product[_pId] = _product;\n        //Transfer Ether to the seller\n        address(_seller).transfer(msg.value);\n        //Emit an event\n        emit ProductPurchased(_product.name, _product.dateOfPurchase, _product.warrantyPeriod, _product.price, msg.sender);\n\n      //  require(msg.value > product[_pId].price, \"Value of sent ether is less than product price\");\n        \n    }\n}\n",
  "sourcePath": "C:\\Users\\Reuben\\Desktop\\Ced test\\V1\\contracts\\ProductTracker.sol",
  "compiler": {
    "name": "solc",
    "version": "0.5.16+commit.9c3226ce.Emscripten.clang"
  },
  "schemaVersion": "3.1.0",
  "updatedAt": "2020-08-03T19:51:25.900Z",
  "devdoc": {
    "methods": {}
  },
  "userdoc": {
    "methods": {}
  }
}