{
  "contractName": "ProductTracker",
  "abi": [
    {
      "inputs": [],
      "payable": false,
      "stateMutability": "nonpayable",
      "type": "constructor"
    },
    {
      "constant": true,
      "inputs": [
        {
          "internalType": "uint256",
          "name": "",
          "type": "uint256"
        }
      ],
      "name": "product",
      "outputs": [
        {
          "internalType": "string",
          "name": "name",
          "type": "string"
        },
        {
          "internalType": "uint256",
          "name": "dateOfPurchase",
          "type": "uint256"
        },
        {
          "internalType": "uint256",
          "name": "warrantyPeriod",
          "type": "uint256"
        },
        {
          "internalType": "uint256",
          "name": "price",
          "type": "uint256"
        },
        {
          "internalType": "address payable",
          "name": "ownerAddress",
          "type": "address"
        }
      ],
      "payable": false,
      "stateMutability": "view",
      "type": "function"
    },
    {
      "constant": true,
      "inputs": [],
      "name": "productCount",
      "outputs": [
        {
          "internalType": "uint256",
          "name": "",
          "type": "uint256"
        }
      ],
      "payable": false,
      "stateMutability": "view",
      "type": "function"
    },
    {
      "constant": false,
      "inputs": [
        {
          "internalType": "uint256",
          "name": "_pId",
          "type": "uint256"
        },
        {
          "internalType": "string",
          "name": "_name",
          "type": "string"
        },
        {
          "internalType": "uint256",
          "name": "_dateOfPurchase",
          "type": "uint256"
        },
        {
          "internalType": "uint256",
          "name": "_wPeriod",
          "type": "uint256"
        },
        {
          "internalType": "uint256",
          "name": "_price",
          "type": "uint256"
        }
      ],
      "name": "addProduct",
      "outputs": [],
      "payable": false,
      "stateMutability": "nonpayable",
      "type": "function"
    },
    {
      "constant": false,
      "inputs": [
        {
          "internalType": "uint256",
          "name": "_pId",
          "type": "uint256"
        }
      ],
      "name": "buyProduct",
      "outputs": [],
      "payable": true,
      "stateMutability": "payable",
      "type": "function"
    }
  ],
  "bytecode": "0x6080604052600060015534801561001557600080fd5b50336000806101000a81548173ffffffffffffffffffffffffffffffffffffffff021916908373ffffffffffffffffffffffffffffffffffffffff160217905550610760806100656000396000f3fe60806040526004361061003f5760003560e01c806312dae1ed14610044578063780bd3f1146101345780638642269e14610230578063e0f6ef871461025e575b600080fd5b34801561005057600080fd5b50610132600480360360a081101561006757600080fd5b81019080803590602001909291908035906020019064010000000081111561008e57600080fd5b8201836020820111156100a057600080fd5b803590602001918460018302840111640100000000831117156100c257600080fd5b91908080601f016020809104026020016040519081016040528093929190818152602001838380828437600081840152601f19601f820116905080830192505050505050509192919290803590602001909291908035906020019092919080359060200190929190505050610289565b005b34801561014057600080fd5b5061016d6004803603602081101561015757600080fd5b810190808035906020019092919050505061040a565b60405180806020018681526020018581526020018481526020018373ffffffffffffffffffffffffffffffffffffffff1673ffffffffffffffffffffffffffffffffffffffff168152602001828103825287818151815260200191508051906020019080838360005b838110156101f15780820151818401526020810190506101d6565b50505050905090810190601f16801561021e5780820380516001836020036101000a031916815260200191505b50965050505050505060405180910390f35b61025c6004803603602081101561024657600080fd5b81019080803590602001909291905050506104f8565b005b34801561026a57600080fd5b5061027361060f565b6040518082815260200191505060405180910390f35b6000809054906101000a900473ffffffffffffffffffffffffffffffffffffffff1673ffffffffffffffffffffffffffffffffffffffff163373ffffffffffffffffffffffffffffffffffffffff161461032e576040517f08c379a000000000000000000000000000000000000000000000000000000000815260040180806020018281038252602281526020018061070a6022913960400191505060405180910390fd5b6040518060a001604052808581526020018481526020018381526020018281526020013373ffffffffffffffffffffffffffffffffffffffff1681525060026000878152602001908152602001600020600082015181600001908051906020019061039a929190610615565b5060208201518160010155604082015181600201556060820151816003015560808201518160040160006101000a81548173ffffffffffffffffffffffffffffffffffffffff021916908373ffffffffffffffffffffffffffffffffffffffff1602179055509050505050505050565b6002602052806000526040600020600091509050806000018054600181600116156101000203166002900480601f0160208091040260200160405190810160405280929190818152602001828054600181600116156101000203166002900480156104b65780601f1061048b576101008083540402835291602001916104b6565b820191906000526020600020905b81548152906001019060200180831161049957829003601f168201915b5050505050908060010154908060020154908060030154908060040160009054906101000a900473ffffffffffffffffffffffffffffffffffffffff16905085565b6000809054906101000a900473ffffffffffffffffffffffffffffffffffffffff1673ffffffffffffffffffffffffffffffffffffffff163373ffffffffffffffffffffffffffffffffffffffff16141561059e576040517f08c379a00000000000000000000000000000000000000000000000000000000081526004018080602001828103825260218152602001806106e96021913960400191505060405180910390fd5b6002600082815260200190815260200160002060030154341161060c576040517f08c379a000000000000000000000000000000000000000000000000000000000815260040180806020018281038252602e8152602001806106bb602e913960400191505060405180910390fd5b50565b60015481565b828054600181600116156101000203166002900490600052602060002090601f016020900481019282601f1061065657805160ff1916838001178555610684565b82800160010185558215610684579182015b82811115610683578251825591602001919060010190610668565b5b5090506106919190610695565b5090565b6106b791905b808211156106b357600081600090555060010161069b565b5090565b9056fe56616c7565206f662073656e74206574686572206973206c657373207468616e2070726f647563742070726963654d616e7566616374757265722063616e7420627579206f776e2070726f647563744f6e6c79206d616e7566616374757265722063616e206164642070726f6475637473a265627a7a72315820f67973dcc828962a086afa9d519ee3887b7091b75bf15806ab932e7a849b140564736f6c63430005100032",
  "source": "//SPDX-License-Identifier: MIT\npragma solidity >= 0.5.0 < 0.7.0;\n\ncontract ProductTracker {\n\n  address internal product_manufacturer;\n  uint public productCount = 0;\n\n  constructor () public {\n    product_manufacturer = msg.sender;\n    }\n\n  struct productDetail {\n        string name;\n        uint dateOfPurchase;\n        uint warrantyPeriod;\n        uint price;\n        address payable ownerAddress;\n    }\n\n   mapping(uint => productDetail) public product;\n\n   modifier only_manufacturer (){\n       require (msg.sender == product_manufacturer, \"Only manufacturer can add products\");\n       _;\n    }\n\n   modifier buy_conditions (){\n       require (msg.sender != product_manufacturer, \"Manufacturer cant buy own product\");\n       _;\n    }\n\n   function addProduct(uint _pId, string memory _name, uint _dateOfPurchase,uint _wPeriod, uint _price) public only_manufacturer{\n\n        product[_pId] = productDetail(_name, _dateOfPurchase, _wPeriod, _price, msg.sender);\n    }\n\n    function buyProduct(uint _pId) public payable buy_conditions{\n        require(msg.value > product[_pId].price, \"Value of sent ether is less than product price\");\n        \n    }\n}\n",
  "sourcePath": "C:\\Users\\Reuben\\Desktop\\Ced test\\V1\\contracts\\ProductTracker.sol",
  "compiler": {
    "name": "solc",
    "version": "0.5.16+commit.9c3226ce.Emscripten.clang"
  },
  "schemaVersion": "3.1.0",
  "updatedAt": "2020-07-31T21:52:34.262Z",
  "networkType": "ethereum",
  "devdoc": {
    "methods": {}
  },
  "userdoc": {
    "methods": {}
  }
}